:100000000000022031640100596401005B640100BA
:100010005D6401005F640100616401000000000094
:100020000000000000000000000000006364010008
:10003000656401000000000067640100696401005C
:100040006B6401006B640100D162010095620100E4
:10005000A96201006B6401003D5301007D6A01004B
:10006000995E0100A15E0100A95E01006B640100C0
:100070006B6401006B6401006B6401006B64010040
:100080006B6401006B6401006B6401006B64010030
:100090006B6401006B6401006B6401006B64010020
:1000A0006B6401006B640100B15E0100B95E010088
:1000B0006B6401006B6401000000000000000000A0
:1000C0006B6401006B6401006B640100BD620100A0
:1000D0006B6401006B6401006B6401006B640100E0
:1000E000F9620100000000000000000000000000B4
:1000F000000000006B64010000000000E5620100E8
:1001000000000000000000000000000000000000EF
:1001100000000000000000000000000000000000DF
:1001200000000000000000000000000000000000CF
:1001300000000000000000000000000000000000BF
:1001400000000000000000000000000000000000AF
:10015000000000000000000000000000000000009F
:10016000000000000000000000000000000000008F
:10017000000000000000000000000000000000007F
:10018000000000000000000000000000000000006F
:10019000000000000000000000000000000000005F
:1001A000000000000000000000000000000000004F
:1001B000000000000000000000000000000000003F
:1001C000000000000000000000000000000000002F
:1001D000000000000000000000000000000000001F
:1001E000000000000000000000000000000000000F
:1001F00000000000000000000000000000000000FF
:100200002DE9F04F85B003910778A7F10903042B7E
:10021000044607F07F0200F10100F5D9202AF3D04F
:100220002B2F04BF677804462D2F75D09FED427B9E
:100230008DED007B4FF000084FF000099FB34FF0A9
:10024000000C25464FF0000ADFF8FCB0644619E0C8
:1002500019F044FB80468946304619F0D5FA4246EB
:100260004B4619F085F95246804689465B46DDE9E2
:1002700000013CB319F05CFCCDE90001A44615F87F
:10028000017F7FB1A7F13006092E52465B464046FA
:100290004946DDD9CCB92E2F17D115F8017F01249D
:1002A000002FEFD12C4642464B46DDE9000119F004
:1002B00015FB80468946039B404649461C6005B0B5
:1002C000BDE8F08F4FF0010CD9E72C46BCF1000FD0
:1002D00029D042464B46DDE9000119F0FFFA07F04C
:1002E000DF07452F80468946E5D10399681C0A221D
:1002F00019F022F914490246002019F09FFE024627
:100300000B464046494619F0E9FA80468946404680
:10031000494605B0BDE8F08F9FED097B67788DED0C
:10032000007B013486E7DFF824904FF00008404658
:10033000494605B0BDE8F08F000000000000F03F26
:10034000000000000000F0BF000024400000F87F23
:100350002DE9F0470023144600228046894619F013
:100360002FFD28B109F1004399462D232370013454
:10037000002200234046494619F018FD28B13022DA
:10038000002322706370BDE8F0874046494617F0AD
:1003900017FE19F053FD73A3D3E90023074649461E
:1003A000404619F00DFD00284ED170A3D3E900237B
:1003B0004046494619F022FD002845D10E2F07F18D
:1003C000010540F3B980A7F10E06324600206249CC
:1003D00019F034FE02460B464046494619F0A8FB88
:1003E00000225E4B19F0C4F819F064FE002DA7F14D
:1003F0000F0E4FF0010C4DDD594FDFF878810122CF
:1004000045F6F3294FF02E0A494508BF40454FF005
:1004100030030AD3B0EB080061EB0901494508BF7E
:10042000404503F10103F5D2DBB2237050EA01032A
:1004300004F101084AD1954252DD0132102A4FD011
:10044000444677E90289DFE7002F33DB3A46002094
:10045000414919F0F3FD02460B464046494619F062
:1004600067FB3BA3D3E9002380468946012500268C
:100470004046494619F032FA0022384B19F078F814
:1004800019F018FE002DBC464FF0FF3E37464FF0E6
:100490000006B1DC234630224FF02E0803F8022B71
:1004A00084F80180FC4345D01C4403F8012BA3428F
:1004B000FBD1A1E77A420020274919F0BFFD02468F
:1004C0000B464046494619F009FACAE7954202F13F
:1004D000010204BF84F801A004F10208102AAFD180
:1004E0006EB14246302102F8011BC2F10103734490
:1004F0004344002BF7DC2EEAEE7301339844BCF141
:10050000010F12D0BCF1000F4FF0650388F80030E6
:10051000C5BF2B2388F8013008F1010108F1020161
:100520006046BDE8F04710F081B9002388F800303C
:10053000BDE8F0871C465FE7C7F10E0200200649C0
:1005400019F07CFD3E4602460B46012790E700BFAE
:100550000000901EC4BCD642000024400000E03FD2
:10056000D8AB01008DEDB5A0F7C6B03E50EFE2D696
:10057000E41A4B4400407A1070B54FF0FF3006F09B
:1005800057FA04466FF07F4006F052FA06462046BE
:1005900019F02AF900220C4B19F0A0F90446304654
:1005A0000D4619F021F906A3D3E9002319F0C0FA8A
:1005B00002460B462046294618F0DAFF70BD00BF00
:1005C0000000E0DFFFFF6F430000F03D000000008F
:1005D0002DE9F04F1D461389AB4288BF536885B0A3
:1005E00004468CBF53F82500002090468A4606F04A
:1005F00093FE0022904B19F071F919F01FFCB8F826
:1006000008206B1C9A4288BFD8F8042006468CBF8D
:1006100052F82300002006F07FFE0022864B19F0DE
:100620005DF919F00BFCB8F808300235AB4288BF11
:10063000D8F8043007468CBF53F82500002006F098
:100640006BFE002EC4E9006740F3E280002F40F308
:10065000DF8071A3D3E90023002584F8285017F028
:10066000D1FB002200238046894619F0A9FB40B146
:100670004046494668A3D3E9002318F079FF804635
:10068000894667A3D3E900234046494619F0B6FBE3
:10069000C0B165A3D3E900234046494619F09AFB4F
:1006A00080B101234046494684F8283060A3D3E94D
:1006B000002318F05DFF58A3D3E9002317F0A2FB35
:1006C0008046894600225D4B4046494619F006F9AE
:1006D00017F0CCF801F1004300221946564B19F0EF
:1006E000FDF819F0ABFB49460546404617F07AF88D
:1006F0000022514B19F0F2F819F0A0FBDAF804309F
:100700004F49B3F80CB0B3F80AA0A56007FB0BF390
:1007100003EB010806FB0AF6019388FB05234FEA69
:10072000124C00960E444CEA034C06EA010383FB8C
:10073000009A06EB0C0E0EEA010ED346CA468EFB5B
:1007400000675246CDE90267120C42EA0B42DDE92E
:1007500002AB0CEA010C8CFB00674FEA16495646C7
:100760000A40360C46EA0B4649EA074982FB05ABCC
:100770005F46C144B0445646CDE90267039FE0603E
:10078000360C09EA010908EA010846EA074689FB2E
:1007900005AB334488FB0556CDE9025655462D0C72
:1007A00045EA0B45DDE902AB0B40AC4403EAE377D5
:1007B0000CEA010C554623EAE37367454FEA1545F9
:1007C00002EAE276A8BF674645EA0B45634522EA9E
:1007D000E272B8BF6346AE444E450EEA010EA8BFB2
:1007E0004E464A45B8BF4A467745A8BF7746734547
:1007F000B8BF73464645A8BF4646C4E905634245AF
:10080000B8BF424600980199206261622761E261A7
:10081000204605B0BDE8F08FEA2E4454FB21194074
:10082000F4D64354FB21F93F320D337F7CD912407B
:10083000EA2E4454FB2109400000F0400000E03F54
:100840000000FFFF000000002DE9F04F2DED028BAE
:10085000044683B0C06818F0D7FF804620698946F7
:1008600018F0D2FF824660698B4618F0CDFF024631
:1008700001F1004306460F464046494617F054FA38
:1008800019F024FBE062054617F006F901902846AE
:1008900017F0B6F8019B0546184618F0C7FF424608
:1008A0004B4619F01BF880462846894618F0BEFFD3
:1008B00032463B4619F012F802460B46404649467E
:1008C00018F054FE02460B465046594617F02CFAD3
:1008D00019F0FCFA002208EE100A002330463946CF
:1008E00019F08CFA28B3B5EEC08AF1EE10FA1CDDCF
:1008F00011A7D7E9006718EE100A18F097FF024613
:100900000B463046394618F031FE32463B4618F069
:100910002FFE19F0DBFAA062E38843F00203E380C4
:1009200003B0BDEC028BBDE8F08F05A7D7E90067E7
:10093000E1E784ED0A8AEFE7EA2E4454FB21F93F10
:10094000EA2E4454FB21F9BF494A21F00043934267
:100950002DE9704304460D4649DC464A93420E4653
:100960000EDC3FA3D3E9002318F002FE0022424B25
:1009700019F044FA00284AD020462946BDE8708381
:100980003E4A934239DCB3F1804F40DD16F026FF3A
:100990002246804689462B462046294618F09EFF6F
:1009A0000022354B18F0E4FD17F0B4FD42464B46EB
:1009B00018F0DEFD02460B4600202F4919F0B8F86A
:1009C000424604460D464B464046494618F0D0FD87
:1009D00002460B462046294618F0CAFD02F040F8B0
:1009E000002E08DC01F100431946BDE87083024681
:1009F0000B4618F0BDFDBDE8708316F0EFFE02F067
:100A00002FF819A3D3E9002318F0B2FDE8E7224636
:100A10002B462046294618F061FF8046894620462D
:100A2000294616F0DBFE002204460D46124B4046D6
:100A3000494618F09DFD17F06DFD00220E4B18F091
:100A400097FD02460B464046494619F071F822468A
:100A50002B4618F08DFD00F0A7FAC1E7AFF3008038
:100A60009C7500883CE4377EEF39FAFE422EE63F63
:100A7000FFFFEF7FFFFF2F3E0000F03F0000B0417F
:100A80002DE9F84FBE4B21F000469E4204460D462C
:100A90008A460EDDBB4B9E4200F3B18000F0AC8075
:100AA000BAF1000F40F3EA8099A1D1E90001BDE855
:100AB000F88FB54B9E4200F3BA80A3F1DE739E42DD
:100AC00040F3A5804FF0FF3B22462B4620462946A7
:100AD00018F004FF02460B468046894618F0FEFED9
:100AE0008DA3D3E9002306460F4618F0F7FE8CA32A
:100AF000D3E9002318F03CFD32463B4618F0EEFEE9
:100B000089A3D3E9002318F033FD32463B4618F0A1
:100B1000E5FE87A3D3E9002318F02AFD32463B46C1
:100B200018F0DCFE84A3D3E9002318F021FD32463F
:100B30003B4618F0D3FE82A3D3E9002318F018FD3A
:100B400042464B4618F0CAFE7FA3D3E900238046F5
:100B500089463046394618F0C1FE7DA3D3E900230B
:100B600018F004FD32463B4618F0B8FE7AA3D3E9EC
:100B7000002318F0FBFC32463B4618F0AFFE78A38A
:100B8000D3E9002318F0F2FC32463B4618F0A6FEEB
:100B900075A3D3E9002318F0E9FC32463B4618F070
:100BA0009DFE02460B464046494618F0E1FC2246AF
:100BB0002B4618F093FEBBF1FF3F02460B4661D077
:100BC000724B734E4FEACB0B5B44D3E9002318F012
:100BD000CDFC22462B4618F0C9FCB34402460B4616
:100BE000DBE9000118F0C2FCBAF1000F0DDA01F1E7
:100BF00000431946BDE8F88F00283FF451AF224664
:100C00002B462046294618F0B3FCBDE8F88F58A3C0
:100C1000D3E9002318F0ACFC00225E4B19F0EEF88B
:100C200000283FF44FAF20462946BDE8F88F16F064
:100C3000D5FD594B9E4204460D4629DCA3F55023B1
:100C40009E424EDC02460B4618F092FC0022514BAD
:100C500018F08CFC002206460F464FF080432046D9
:100C6000294618F085FC02460B463046394618F0F6
:100C70005FFF4FF0000B04460D4625E73EA1D1E98A
:100C80000001C2E72046294618F070FCBDE8F88F45
:100C9000424B9E421ADC0022414B18F067FC0022B6
:100CA00006460F463E4B2046294618F017FE002206
:100CB000384B18F05DFC02460B463046394618F0BA
:100CC00037FF4FF0020B04460D46FDE602460B4689
:100CD0000020344918F02CFF4FF0030B04460D465A
:100CE000F2E600222B4B18F041FC002206460F468C
:100CF000284B2046294618F03BFC02460B4630465E
:100D0000394618F015FF4FF0010B04460D46DBE69F
:100D1000182D4454FB21F93F11DA22E33AAD903FFC
:100D2000EB0D76244B7BA93F513DD0A0660DB13F22
:100D30006E204CC5CD45B73FFF8300922449C23F8A
:100D40000D5555555555D53F2F6C6A2C44B4A2BF4F
:100D50009AFDDE522DDEAD3F6D9A74AFF2B0B33F17
:100D6000711623FEC671BC3FC4EB98999999C93F8F
:100D70009C7500883CE4377E182D4454FB21F9BF54
:100D8000FFFF0F440000F07FFFFFDB3F00AC0100DE
:100D9000E0AB01000000F03FFFFFF23FFF7F0340A8
:100DA0000000F83F0000F0BF2DE9F041C1F30A5701
:100DB000A7F2FF35132D02460B460C468846064621
:100DC00020DC002D4ADB364F2F4101EA070C5CEA9C
:100DD000000C1CD030A3D3E9002318F0C9FB00227B
:100DE000002319F00BF848B1002C04DD4FF48013F8
:100DF00043FA05F5A84428EA0704002621463046B0
:100E0000BDE8F081332D06DDB5F5806F38D0104692
:100E10001946BDE8F081A7F213474FF0FF3C2CFACA
:100E200007F70742F3D01CA3D3E9002318F0A0FB77
:100E30000022002318F0E2FF0028DFD0002C09DD9B
:100E4000142D22D00123C5F1340503FA05F5AE199E
:100E500028BF984426EA07064446CFE70EA3D3E905
:100E6000002318F085FB0022002318F0C7FF00289C
:100E7000C4D0002C0CDB264305D00026094CBDE76E
:100E800018F076FBC5E73446B8E704F10108E1E75E
:100E900000264FF00044B1E79C7500883CE4377EA3
:100EA000FFFF0F000000F03F2DE9F041C1F30A57AA
:100EB000A7F2FF35132D02460B460C468846064620
:100EC0001DDC002D3CDB364F2F4101EA070C5CEAAC
:100ED000000C19D030A3D3E9002318F049FB0022FD
:100EE000002318F08BFFC8B3002C04DA4FF48013F2
:100EF00043FA05F5A84428EA070400262EE0332D1E
:100F000006DDB5F5806F2DD010461946BDE8F0819D
:100F1000A7F213474FF0FF3C2CFA07F70742F3D034
:100F20001DA3D3E9002318F023FB0022002318F0AF
:100F300065FF98B1002C21DB26EA070644460DE048
:100F400015A3D3E9002318F013FB0022002318F0A7
:100F500055FF18B1002C08DB0026344621463046E8
:100F6000BDE8F08118F004FBD0E724F000430D4AFF
:100F70001E43002E18BF14460026EFE7142D08D09C
:100F80000123C5F1340503FA05F5AE1928BF9844CD
:100F9000D2E704F10108CFE79C7500883CE4377E76
:100FA000FFFF0F000000F0BF2DE9F04FD84B994232
:100FB00087B08046894643DDD64B99420E4600F302
:100FC000F480D54B994240F32D819FEDBB7B8DED95
:100FD000047B4FEA215A0446AAF2FF3ACF4BC6F3EC
:100FE00013069E4246F07F5500F3128145F44015EA
:100FF000204629460022CA4B18F0B8FA00220446BF
:101000000D46C84B18F06AFC22462B4618F066FCC9
:10101000A046CDE90201A946CDE90001002E3AD152
:10102000002200232046294618F0C0FE002800F0C8
:101030001B81BAF1000F40F0858100200021B8E04B
:10104000B94B21F000449C420A460FDD0022B74B09
:1010500018F0ACFE002800F0AF8000220023002032
:10106000B34918F065FD07B0BDE8F08FB14B9C4265
:1010700040F3AF80B04B1A449A4240F2D380002232
:10108000A84B18F02BFC42464B4618F027FCCDE944
:1010900000014FF0000A00224FF0804340464946CD
:1010A00018F066FA02460B464046494618F040FDE5
:1010B00002460B4606460F4618F010FC80A3D3E903
:1010C000002304460D4618F009FC7FA3D3E9002352
:1010D00018F04EFA22462B4618F000FC7CA3D3E908
:1010E000002318F045FA22462B4618F0F7FB7AA3A6
:1010F000D3E9002318F03CFA22462B4618F0EEFB09
:1011000077A3D3E9002318F033FA22462B4618F0D0
:10111000E5FB75A3D3E9002318F02AFA22462B46F3
:1011200018F0DCFB72A3D3E9002318F021FA224661
:101130002B4618F0D3FBDDE9002318F019FA3246EC
:101140003B4618F0CBFB04460D46BAF1000F00F009
:10115000A880504618F058FB67A3D3E900238246C5
:101160008B4618F0BBFB66A3D3E9002306460F4667
:101170005046594618F0B2FBDDE9042318F0F8F99F
:1011800022462B4618F0F4F902460B46DDE9000131
:1011900018F0ECF942464B4618F0E8F902460B46C7
:1011A0003046394618F0E2F903E002460B4618F0E3
:1011B000DFF907B0BDE8F08F42464B46404649464E
:1011C00018F0D4F902460B4618F0B2FC07B0BDE89F
:1011D000F08F0022594B18F0CBF90022002318F0B1
:1011E0000DFE10B1564B9C4262DD42464B464046D6
:1011F000494618F073FB00224A4B18F06FFB024679
:101200000B464046494618F0B1F907B0BDE8F08FEB
:1012100045F40015C6F5801620462946B6100AF199
:10122000010AE7E600223E4B4046494618F0A0F985
:101230004FEA215AAAF2FF3ABAF1000F04460D46CE
:101240000E4640F3BD8042464B4618F08FF90246E9
:101250000B460020324918F089F922462B4618F037
:1012600067FCCDE90401B9E627A3D3E900232046B2
:10127000294618F033FB02460B460020284918F097
:1012800075F9DDE9022318F029FB06460F46BAF18D
:10129000000F75D102460B462046294618F066F924
:1012A00087E702460B46DDE9000118F05FF9A6E783
:1012B000404649467DE700BF0000000000000000F6
:1012C00044523EDF12F1C23F9FC678D0099AC33F15
:1012D000DE03CB966446C73FAF788E1DC571CC3F09
:1012E000599322942449D23F04FA97999999D93F66
:1012F000935555555555E53F0000E0FE422EE63F1B
:10130000763C7935EF39EA3D555555555555E53F0C
:101310007982DA3FFFFFEF7FFFFF3F439DA006008A
:101320000000F03F0000E03FFFFFEF3F0000F0BF94
:10133000000050C3FFFF1F3E3C412D4000005043C2
:10134000FFFF8F3C504618F05FFA24A3D3E9002337
:1013500006460F4618F0C2FADDE9042318F008F932
:1013600020A3D3E9002304460D463046394618F041
:10137000B5FA02460B462046294618F0F9F818E758
:10138000504618F041FA17A3D3E9002382468B4652
:1013900018F0A4FA11A3D3E90023804689465046E9
:1013A000594618F09BFADDE9042318F0E1F80246EB
:1013B0000B463046394618F0D9F822462B4674E7DA
:1013C0000022054B18F0D2F802460B46404649462B
:1013D00018F0CCF841E700BF0000F03F763C7935CB
:1013E000EF39EA3D0000E0FE422EE63F000000003B
:1013F00008B516F067FD04A3D3E9002318F098FBA5
:1014000008BD00BFAFF30080EF39FAFE422EE63F81
:101410002DE9F043DFF8B4808BB004460D4601F0AF
:10142000F7F898F90030013306460F462CD02246D3
:101430002B462046294618F0EBFC814620BB20466F
:10144000294616F0CBF91FA3D3E9002318F0D6FCE8
:10145000D0B1194A98F90030CDF820900321CDE998
:101460000445CDE90245CDE9001293B113490020AE
:10147000022BCDE9060111D118F006F822230360F2
:10148000089B9BB9DDE90667304639460BB0BDE8DD
:10149000F0830B4B4FF06042CDE90623684617F00E
:1014A0006FFE0028E8D0089B002BEBD017F0ECFF74
:1014B000089B0360E6E700BFF4BE01000000F07F78
:1014C000FFFFEF477DF8B98FCE3386400F02002033
:1014D0002DE9F043DFF8E4808BB004460D4601F0BF
:1014E00047F998F90030013306460F4633D02046BD
:1014F000294617F03FFE70B32CA3D3E90023204602
:10150000294618F07BFC814650BB2AA3D3E900236F
:101510002046294618F054FCE8B198F90030204ADA
:10152000CDF82090002000210426022BCDE90445AF
:10153000CDE902450096CDE90601019229D0684621
:1015400017F01EFE28B3089B1BB117F09DFF089BE8
:101550000360DDE90667304639460BB0BDE8F0832D
:101560000F4A98F90030019203210022CDE9044589
:10157000CDE90245009108922BB90A4B4FF0604229
:10158000CDE90623DBE708490020022BCDE906015F
:10159000D5D117F079FF22230360D4E7AFF30080A1
:1015A000FCBE0100FFFFEF470000F07FEF39FAFEBD
:1015B000422E864051302DD5104987C00F020020A1
:1015C0002DE9F04FDFF82C938DB006460F461446F8
:1015D0001D4601F09DFC99F90080B8F1FF3FCDE96F
:1015E000000136D022462B462046294618F010FC32
:1015F000834670BB32463B463046394618F008FCFD
:101600008246002840F0A28030463946002200235E
:1016100018F0CCFB10B3002200232046294618F016
:10162000C5FB8346002867D09FEDA77B0122AC4B0A
:10163000CDF828A00292CDE90467CDE906458DEDED
:10164000087B0393B8F1000F41D09FEDA17B8DED96
:10165000007BDDE900010DB0BDE8F08FDDE90001A0
:1016600017F088FD8046002800F08D804FF0000ABA
:101670004FF0000BDDE9000152465B4618F096FB87
:101680000028E6D03046394617F074FD0028E0D037
:101690002046294617F06EFD0028DAD099F900306F
:1016A0008F4A039204210022022BCDE90467CDE981
:1016B0000645CDE908AB02910A9203D002A817F0C3
:1016C0005FFD50B917F0E0FE2223036005E002A899
:1016D00017F056FD002800F09B800A9B1BB117F005
:1016E000D3FE0A9B03609DED087B8DED007BDDE959
:1016F00000010DB0BDE8F08F2046294617F03AFDF5
:101700000028A6D0002200232046294618F058FBC6
:1017100000289ED0724A99F90030CDF828B00121F6
:10172000CDE90467CDE90645CDE90212002B74D05E
:101730006C490020022BCDE9080172D117F0A4FEFC
:10174000212303600A9B002BCDD0C8E70022002391
:101750002046294618F02AFB00283FF47AAF624B56
:101760005F49CDF828B000220120B8F1020FCDE981
:1017700004670290CDE90645CDE908230391A6D17F
:10178000CDE9002365E73046394617F0F3FC002821
:101790003FF46CAF2046294617F0ECFC00283FF4DC
:1017A00065AFDDE900231046194618F031FB99F9C1
:1017B00000A000286BD10323DFF824C10A9029463A
:1017C000204602930022494BCDF80CC0CDE90645D6
:1017D000CDE9046718F082F804460D46BAF1000F0F
:1017E00025D1DFF814B14FF0604A002200233046C3
:1017F0003946CDE908AB18F0E3FA38BB02A817F078
:10180000BFFC00289ED117F03FFE2223036099E71A
:1018100017F03AFE212303605FE79FED2B7B8DEDF0
:10182000087B02A817F0ACFC00288BD186E79FED5F
:101830002A7B00220023304639468DED087B18F0C4
:10184000BFFAA0B9BAF1020FDDD0D7E7204629468A
:1018500017F09EFC22462B4618F0A8FAA0B9244B9C
:1018600099F900A04FF06042CDE90823EAE720464D
:10187000294617F08DFC22462B4618F097FA18B926
:10188000184B0022CDE9082399F900A0DAE70122DC
:10189000134BCDF828800292CDE90467CDE90645C7
:1018A0000393BAF1000FB8D0002200231046194666
:1018B00018F03EF9BAF1020FCDE908013FF43EAF4E
:1018C000AFE700BFAFF300800000000000000000A1
:1018D000000000000000F03F000000000000F07F6A
:1018E00014BF01000000F0FF0000F03F0000E03FE7
:1018F000FFFFEFC70F020020FFFFEF4700000000CF
:101900002DE9F84FC44E21F00043B34204460D4682
:101910000DDD03F1404303F58013034340F0B9802C
:10192000002940F3408100200021BDE8F88FBB4E24
:10193000B34208DCBA4A934200F3B5809CA1D1E9D6
:101940000001BDE8F88F0029C0F2708102460B4605
:101950000020B44917F00AFE0022B34B17F0BEFF77
:1019600004460D4616F0D6FD93A3D3E9002389461D
:1019700080462946204617F0B1FF91A3D3E9002302
:1019800017F0F6FD22462B4617F0A8FF8EA3D3E9E9
:10199000002317F0EBFD22462B4617F09FFF8CA388
:1019A000D3E9002317F0E4FD22462B4617F096FFFB
:1019B00089A3D3E9002317F0D9FD22462B4617F05F
:1019C0008DFF87A3D3E9002317F0D2FD22462B46D3
:1019D00017F084FF84A3D3E9002382468B46204678
:1019E000294617F07BFF82A3D3E9002317F0BEFD41
:1019F00022462B4617F072FF7FA3D3E9002317F08E
:101A0000B7FD22462B4617F069FF7DA3D3E90023DB
:101A100017F0ACFD22462B4617F060FF0022814BE9
:101A200017F0A6FD02460B465046594618F080F8BE
:101A300042464B4617F052FF002682468B463246FE
:101A40004B463046494617F049FF02460B462046B2
:101A5000294617F08BFD324604460D464B4640465C
:101A6000494617F085FD02460B462046294618F0E8
:101A70005FF802460B465046594617F079FD32464C
:101A80004B4617F075FD02460B4617F071FDBDE899
:101A9000F88F02460B4617F069FD02460B4618F018
:101AA00047F8BDE8F88F02460B4617F017FF42A330
:101AB000D3E9002306460F4617F010FF40A3D3E9F1
:101AC000002317F055FD32463B4617F007FF3EA3B3
:101AD000D3E9002317F04AFD32463B4617F0FEFEDD
:101AE0003BA3D3E9002317F043FD32463B4617F0F2
:101AF000F5FE39A3D3E9002317F038FD32463B4603
:101B000017F0ECFE36A3D3E9002317F031FD32467F
:101B10003B4617F0E3FE34A3D3E900238046894611
:101B20003046394617F0DAFE31A3D3E9002317F027
:101B30001DFD32463B4617F0D1FE2FA3D3E900230B
:101B400017F016FD32463B4617F0C8FE2CA3D3E92A
:101B5000002317F00BFD32463B4617F0BFFE002274
:101B6000304B17F005FD02460B464046494617F03C
:101B7000DFFF22462B4617F0B1FE02460B4622A19C
:101B8000D1E9000117F0F2FC02460B462046294637
:101B900017F0ECFC02460B4605A1D1E9000117F055
:101BA000E5FCBDE8F88F1AA1D1E9000179E700BF93
:101BB000182D4454FB21F93F09F7FD0DE13D023F8B
:101BC00088B20175E0EF493F3B8F68B52882A43F9A
:101BD0005544880E55C1C93F7D6FEB0312D6D43FE3
:101BE000555555555555C53F82922EB1C5B8B33F91
:101BF00059018D1B6C06E63FC88A599CE52A0040B6
:101C00004B2D8A1C273A0340075C143326A6913CCF
:101C1000182D4454FB210940FFFFEF3FFFFFDF3F3A
:101C20000000603C0000F03F0000E03F00225C4B01
:101C300017F09EFC00225B4B17F050FE40A3D3E947
:101C4000002304460D4617F049FE3FA3D3E90023C5
:101C500017F08EFC22462B4617F040FE3CA3D3E93A
:101C6000002317F083FC22462B4617F037FE3AA3D9
:101C7000D3E9002317F07CFC22462B4617F02EFEFA
:101C800037A3D3E9002317F071FC22462B4617F047
:101C900025FE35A3D3E9002317F06AFC22462B4624
:101CA00017F01CFE804689462046294616F032FC75
:101CB0002FA3D3E9002306460F462046294617F0F6
:101CC0000DFE2DA3D3E9002317F050FC22462B462E
:101CD00017F004FE2AA3D3E9002317F049FC22469B
:101CE0002B4617F0FBFD28A3D3E9002317F03EFC99
:101CF00022462B4617F0F2FD0022294B17F038FC44
:101D000002460B464046494617F012FF32463B4614
:101D100017F0E4FD1EA3D3E9002317F027FC324699
:101D20003B4617F025FC02460B4617F021FC024605
:101D30000B4619A1D1E9000117F018FCB1E600BF6C
:101D400009F7FD0DE13D023F88B20175E0EF493F23
:101D50003B8F68B52882A43F5544880E55C1C93FC2
:101D60007D6FEB0312D6D43F555555555555C53F9C
:101D700082922EB1C5B8B33F59018D1B6C06E63F68
:101D8000C88A599CE52A00404B2D8A1C273A0340FB
:101D9000075C143326A6913C182D4454FB210940BE
:101DA0000000F03F0000E03F414A91422DE9F84336
:101DB00004460D4637DD3F4A91420B4608DD02F1ED
:101DC000795291423DDD024617F0D2FBBDE8F8831F
:101DD00001F1404202F5801202432ED0B1F1804F52
:101DE00037DC0022344B17F0C1FB02460B46044699
:101DF0000D4617F0BDFB224606460F462B462046F1
:101E0000294617F06BFD02460B463046394617F05F
:101E1000AFFB16F07FFB22462B4617F0A9FBBDE86F
:101E2000F843FFF7C1B802460B4617F09FFB024686
:101E30000B4617F07DFEBDE8F88300200021BDE8C9
:101E4000F88300F00DFE18A3D3E9002317F090FBF0
:101E5000F1E7024617F042FD0022174B17F086FB10
:101E600016F058FB2246804689462B4620462946D6
:101E700017F07EFB224606460F462B464046494653
:101E800017F076FB02460B4600200B4917F050FE78
:101E90000B4602463946304617F068FBBDE8F8436A
:101EA00000F0DEBDAFF30080EF39FAFE422EE63FD0
:101EB000FFFFEF3FFFFFAF410000F03F00000000D9
:101EC0002DE9F04FAE4B21F000479F4287B004460A
:101ED0000D4611DD07F1404707F5801703463B43E8
:101EE00021D002460B4617F041FB02460B4617F085
:101EF0001FFE07B0BDE8F08FA24B9F420E4629DCC3
:101F0000B7F1795F80F2468181A3D3E9002317F00E
:101F10002FFB00229C4B17F071FFD8B120462946B9
:101F200007B0BDE8F08F7CA3D3E9002317F0D6FCFF
:101F30007BA3D3E9002306460F462046294617F027
:101F4000CDFC02460B463046394617F011FB07B070
:101F5000BDE8F08F2046294615F040FC02460B46AE
:101F60000020894917F002FB0022884B17F0B6FCCD
:101F70006DA3D3E9002304460D4617F0AFFC6CA314
:101F8000D3E9002317F0F4FA22462B4617F0A6FCFB
:101F900069A3D3E9002317F0E9FA22462B4617F08C
:101FA0009DFC67A3D3E9002317F0E2FA22462B46F3
:101FB00017F094FC64A3D3E9002317F0D7FA224664
:101FC0002B4617F08BFC62A3D3E9002317F0D0FA5D
:101FD00022462B4617F082FC5FA3D3E90023CDE90C
:101FE00000012046294617F079FC5DA3D3E90023C0
:101FF00017F0BCFA22462B4617F070FC5AA3D3E91F
:10200000002317F0B5FA22462B4617F067FC58A3B9
:10201000D3E9002317F0AAFA22462B4617F05EFCFC
:10202000594B002217F0A4FA82468B4620462946D7
:10203000CDE902AB16F06EFA554B9F4280468946B9
:1020400000F3198102460B4617F092FADDE90223EC
:10205000CDE90401DDE9000117F06AFD02460B46F7
:10206000DDE9040117F03AFC4FF0000ACDE9000168
:1020700052464B465046494617F030FC02460B4646
:102080002046294617F072FA524604460D464B4642
:102090004046494617F06CFA02460B462046294650
:1020A00017F046FD02460B4617F062FA02460B4651
:1020B0001BA1D1E9000117F059FA02460B46DDE9F0
:1020C000000117F053FA524604460D464B4650465F
:1020D000494617F04DFA02460B4627A1D1E9000107
:1020E00017F044FA02460B462046294617F03EFAFE
:1020F00002460B4620A1D1E9000117F037FA002E65
:102100003FF7F7AE01F100431946F2E6AFF3008066
:102110009C7500883CE4377E182D4454FB21F93F20
:10212000075C143326A6913C09F7FD0DE13D023F03
:1021300088B20175E0EF493F3B8F68B52882A43F24
:102140005544880E55C1C93F7D6FEB0312D6D43F6D
:10215000555555555555C53F82922EB1C5B8B33F1B
:1021600059018D1B6C06E63FC88A599CE52A004040
:102170004B2D8A1C273A0340182D4454FB21E93F7C
:10218000FFFFEF3FFFFFDF3F0000F03F0000E03FB9
:102190003233EF3F02460B4617F0A0FB4BA3D3E9C7
:1021A000002306460F4617F099FB4AA3D3E9002304
:1021B00017F0DEF932463B4617F090FB47A3D3E910
:1021C000002317F0D3F932463B4617F087FB45A3AF
:1021D000D3E9002317F0CCF932463B4617F07EFBDB
:1021E00042A3D3E9002317F0C1F932463B4617F06A
:1021F00075FB40A3D3E9002317F0BAF932463B46FA
:1022000017F06CFB3DA3D3E9002380468946304696
:10221000394617F063FB3BA3D3E9002317F0A6F977
:1022200032463B4617F05AFB38A3D3E9002317F098
:102230009FF932463B4617F051FB36A3D3E9002302
:1022400017F094F932463B4617F048FB00221E4B2C
:1022500017F08EF902460B464046494617F068FCD7
:1022600022462B4617F03AFB22462B4617F080F900
:1022700007B0BDE8F08F52465B46DDE9000117F07C
:1022800057FC42464B4617F029FB42464B4617F097
:102290006FF902460B4617F06BF907A3D3E9002349
:1022A00017F064F902460B4605A1D1E9000117F0C9
:1022B0005DF924E7AFF30080075C143326A6913C58
:1022C000182D4454FB21F93F0000F03F09F7FD0DA4
:1022D000E13D023F88B20175E0EF493F3B8F68B5B1
:1022E0002882A43F5544880E55C1C93F7D6FEB033A
:1022F00012D6D43F555555555555C53F82922EB1EE
:10230000C5B8B33F59018D1B6C06E63FC88A599C7E
:10231000E52A00404B2D8A1C273A034000000000AC
:102320002DE9F84F1D465342134325F00049DFF8CD
:10233000C8C149EAD3736345144606460F4626D8FA
:10234000C0F1000848EA000821F0004A4AEAD878BB
:10235000E04503468B461AD805F1404808F5801839
:1023600058EA0208AE4643D04FEAA57808F00208C2
:102370005AEA030348EAD17811D1B8F1020F55D0D7
:10238000B8F1030F09D14AA1D1E9000105E03246B5
:102390003B462046294617F0EBF8BDE8F88F59EA8E
:1023A000020329D0E1452ED0E24525D0AAEB090948
:1023B0004FEA2959B9F13C0F3CDC002D3EDA19F106
:1023C0003C0F3BDA00200021B8F1010F4ED0B8F1EC
:1023D000020F3ED0B8F1000FDFD037A3D3E90023BE
:1023E00017F0C4F836A3D3E9002317F0BFF8D4E7F9
:1023F000BDE8F84FFEF744BBBBF1000F12DB32A182
:10240000D1E90001C9E7CA4534D0B8F1020F0DD0B7
:10241000B8F1030FB7D0B8F1010F4FF0000036D07C
:102420000021BAE72AA1D1E90001B6E724A1D1E948
:102430000001B2E724A1D1E90001C5E722462B46FD
:102440003046394617F074FB15F0C8F9FEF718FB53
:10245000BAE719A3D3E9002317F088F802460B4620
:1024600017A1D1E9000117F081F896E701F10043C7
:10247000194692E7B8F1020F14D0B8F1030F0DD04E
:10248000B8F1010F06D014A1D1E9000185E74FF0A2
:10249000004182E712A1D1E900017EE712A1D1E952
:1024A00000017AE712A1D1E9000176E7AFF30080DD
:1024B000182D4454FB2109C0075C143326A6A13C07
:1024C000182D4454FB210940182D4454FB21F93F99
:1024D000182D4454FB21F9BF182D4454FB21E93F2A
:1024E000182D4454FB21E9BFD221337F7CD902C08F
:1024F000D221337F7CD902400000F07F0000000031
:1025000043422DE9F047034321F000463C4A46EAA6
:10251000D373934204460D462AD8964240D0394B95
:102520009E428A462EDD384B9E4235463FDD33467D
:102530000246314617F01CF8224606460F462B4647
:1025400000202F4917F012F802460B463046394654
:1025500017F0EEFAFEF728FD00222C4B17F0BEF91B
:10256000BAF1000F0CDA01F100431946BDE8F0871B
:1025700002460B4616F0FAFF02460B4617F0D8FA51
:10258000BDE8F0871CA3D3E9002316F0F1FF002279
:10259000002317F033FC48B120462946BDE8F087F8
:1025A0000022002317F0C4FABDE8F0873546224622
:1025B0002B462046294616F0DBFF22462B460646D0
:1025C0000F4617F08BF92246804689462B4600209D
:1025D0000B4916F0CBFF02460B464046494617F022
:1025E000A7FA32463B4616F0C3FFFEF7DDFC002299
:1025F000064B17F073F9B3E79C7500883CE4377E0F
:102600000000F03FFFFF2F3EFFFFDF3F0000E03FF5
:102610002DE9F8434E4B21F000449C4206460F46FC
:102620001BDC4C4B9C4222DD4B4B9C4254DD4B4B04
:102630009C4246DD4A4B9C426FDD01339C4269D08F
:1026400041A3D3E900231046194617F047F906467F
:102650000F4630463946BDE8F88302460B4617F070
:102660003DF906460F4630463946BDE8F88315F079
:10267000B5F802F04DFC00223A4B8046894616F030
:1026800077FFB4F1725F06460F46ECDB42464B46DD
:102690004046494617F022F932463B4604460D466D
:1026A0003046394616F064FF02460B46204629465E
:1026B00017F03EFA00222B4B16F05AFF06460F4643
:1026C000D1E715F08BF800F053F80022264B17F0F5
:1026D00005F906460F46C6E715F080F800F048F801
:1026E0000022214B06460F4617F0F8F83246044602
:1026F0000D463B4600201C4917F01AFA02460B46CD
:102700002046294616F034FF06460F463046394625
:10271000BDE8F883154B984292D83046394615F0FB
:102720005DF80022104B17F0D9F800F021F80022D4
:1027300004460D460C4B17F0D1F822462B4617F0F5
:10274000CDF806460F468EE79C7500883CE4377E40
:10275000FFFFEF7F422ED63FFFFF3540412E8640E0
:10276000CD3386400000F03F0000E03F7DF8B98F98
:102770002DE9F047B04F21F00042BA4284B0044640
:102780000D464FEAD17610D9AC4FBA4240F28A805A
:10279000C1F313030343024640F0F180002E7ED0C4
:1027A0000020002104B0BDE8F087A54B9A4200F25A
:1027B000B680A44B9A4240F2D1804FF0000A2246E4
:1027C0002B462046294617F089F885A3D3E9002334
:1027D00006460F4617F082F883A3D3E9002316F0CC
:1027E000C5FE32463B4617F079F881A3D3E90023B2
:1027F00016F0BEFE32463B4617F070F87EA3D3E9D2
:10280000002316F0B3FE32463B4617F067F87CA370
:10281000D3E9002316F0ACFE32463B4617F05EF8D3
:1028200002460B462046294616F0A0FE02460B46FD
:1028300006460F462046294617F050F8804689463E
:10284000BAF1000F00F0AB8032463B4600204FF05B
:10285000804116F08BFE02460B464046494617F073
:1028600067F902460B46DDE9020116F07FFEDDE95D
:10287000002316F07BFE0B4602467349002016F03B
:1028800075FE6FF47F739A4580F2A3800AF57A7A19
:1028900001EB0A5100224FF0B87317F01FF804B093
:1028A000BDE8F08758A3D3E9002317F0A7FA002862
:1028B0006BD157A3D3E900232046294617F080FAAD
:1028C00000287FF46DAF614953A3D3E9002301EBE6
:1028D000C6062046294617F001F8D6E9002316F06F
:1028E00047FE17F0ABFA824616F08EFF4CA3D3E9F1
:1028F000002306460F4616F0F1FF02460B4620461F
:10290000294616F033FE48A3D3E90023CDE90001A0
:102910003046394616F0E2FFCDE9020115E04C4B96
:102920009A42D0D84B4BF4002344D3E9002316F04D
:102930001DFE494B234493ED007BCDE900018DED55
:10294000027BC6F1010AAAEB060ADDE90223DDE9F2
:10295000000116F00BFE04460D4630E734A3D3E920
:10296000002316F005FE0022374B17F047FAA8B3F4
:10297000204629460022344B16F0FAFD8FE70B461D
:1029800016F0F6FD04B0BDE8F08729A3D3E90023D3
:102990001046194616F0A2FF04B0BDE8F087304695
:1029A000394600224FF0804316F0E0FD02460B4608
:1029B0004046494617F0BCF822462B4616F0D6FD95
:1029C00002460B460020204916F0D0FD04B0BDE8B9
:1029D000F08701EB0A5104B0BDE8F0878246EEE6CD
:1029E000D0A4BE726937663EF16BD2C541BDBB3E15
:1029F0002CDE25AF6A56113F93BDBE166CC1663FF3
:102A00003E5555555555C53FEF39FAFE422E864085
:102A100051302DD5104987C0FE822B654715F73FF1
:102A20000000E0FE422EE63F763C7935EF39EA3D84
:102A30009C7500883CE4377E412E8640FFFFEF7F87
:102A4000422ED63FFFFF2F3E0000F03F20AC01009A
:102A5000B1A2F03F30AC010040AC0100000000002A
:102A60002DE9F04FB1F5801F85B006460F460B46A5
:102A700080F2D08021F00042024300F0DA80002989
:102A8000C0F2E9800022D64B16F028FFD54A0B464B
:102A9000934206460F466FF0350E00F3C180C3F334
:102AA000130505F5152C0CF6647C0CF4801C8CF0D9
:102AB0007F5282F440121C1542EA0507A4F2FF344B
:102AC00074440022C84B3046394604EB1C5416F0BF
:102AD0004DFDAB1CC3F31303022B82468B464FF014
:102AE000000240F3AF804FF0804316F041FD0246F4
:102AF0000B465046594617F01BF8064620460F462F
:102B000016F082FE3246CDE902013B463046394698
:102B1000CDE9006716F0E2FE02460B468046894684
:102B200016F0DCFE9AA3D3E9002306460F4616F002
:102B3000D5FE99A3D3E9002316F01AFD32463B4691
:102B400016F0CCFE96A3D3E9002316F011FD324611
:102B50003B4616F0C3FE94A3D3E9002316F008FD0C
:102B600042464B4616F0BAFE91A3D3E900238046B5
:102B700089463046394616F0B1FE8FA3D3E90023CB
:102B800016F0F6FC32463B4616F0A8FE8CA3D3E9BD
:102B9000002316F0EDFC32463B4616F09FFE0B4636
:102BA00002464946404616F0E3FCA5F5C223C5F5AA
:102BB000D725A3F27A4351351D43002D06460F4613
:102BC00040F387800022894B5046594616F086FE16
:102BD00052465B4616F082FE02460B468046894608
:102BE0003046394616F0C4FCDDE9002316F076FEC7
:102BF00006460F46002C40F0818002460B464046B8
:102C0000494616F0B3FC02460B465046594616F0AC
:102C1000ADFC0BE0734A93424FF0000E7FF73FAFDD
:102C200032463B463046394616F0A2FC05B0BDE8B8
:102C3000F08F0022002300206D4916F079FF05B0C7
:102C4000BDE8F08F002317F0B1F860B1002C7CD103
:102C500000200021EAE7024616F088FC002200234B
:102C600016F066FFE2E758A3D3E900235046594621
:102C700016F034FE02460B4600205C4916F076FC46
:102C8000524606460F465B465046594616F026FE0B
:102C900002460B463046394616F020FE06460F46E1
:102CA0002CB3204616F0B0FD49A3D3E9002380469B
:102CB000894616F013FE48A3D3E9002304460D46C7
:102CC0004046494616F00AFE02460B463046394653
:102CD0002CE002460B465046594616F047FCDDE90B
:102CE000002316F0FBFD06460F46002C47D1324666
:102CF0003B465046594616F039FC97E734A3D3E9D2
:102D00000023DDE9020116F0E9FD33A3D3E9002336
:102D100004460D46DDE9020116F0E0FD32463B4671
:102D200016F026FC02460B464046494616F01EFCAD
:102D300052465B4616F01AFC02460B4620462946D0
:102D400016F014FC05B0BDE8F08F204616F05CFDCF
:102D50001FA3D3E9002306460F4616F0BFFD1EA3AE
:102D6000D3E9002304460D463046394616F0B6FD39
:102D700002460B462046294616F0FAFB56E7DDE9E7
:102D8000028913A3D3E900234046494691E700BFD7
:102D900044523EDF12F1C23FDE03CB966446C73F8A
:102DA000599322942449D23F935555555555E53FA3
:102DB0009FC678D0099AC33FAF788E1DC571CC3FAE
:102DC00004FA97999999D93F555555555555D53F79
:102DD0000000E0FE422EE63F763C7935EF39EA3DD1
:102DE00000005043FFFFEF7F0000F03F0000E03F96
:102DF000000050C300000000B1F5801F2DE9F8432A
:102E000004460D460B4619DA21F00042024359D020
:102E100000295FDB00223A4B16F060FD394A0D466F
:102E20002B46934204466FF035010CDD22462B46BB
:102E30002046294616F09CFBBDE8F883314A9342B0
:102E40004FF00001F2DC1815A0F2FF3008444FEA01
:102E5000D0794844C3F3130816F0D6FCC9F57F7344
:102E6000033348EA035506460F4620462946FFF736
:102E7000F7FD1DA3D3E90023804689463046394635
:102E800016F02CFD1AA3D3E9002304460D46404654
:102E9000494616F023FD02460B462046294616F009
:102EA00067FB15A3D3E9002304460D463046394697
:102EB00016F014FD02460B462046294616F058FB34
:102EC000BDE8F8830022002300200F4916F030FEF1
:102ED000BDE8F883024616F049FB0022002316F0F5
:102EE00027FEA9E7AFF30080362BF111F3FE593D21
:102EF0000EE526157BCBDB3F00609F501344D33F8C
:102F000000005043FFFFEF7F000050C300000000AF
:102F10002DE9F04F23F0004555EA020493B00DD09F
:102F20006B4E21F00044B4420F4682460BDD04F1A3
:102F3000404404F5801454EA0A0350D16549002046
:102F400013B0BDE8F08F9B46944647D0B542EEDC07
:102F50005F4EB5425DD0002F80468946CDE9002303
:102F60005BDB0026BCF1000F0ED1594B9D423FD0D8
:102F7000584B9D4200F08880BBF1804F00F09C8050
:102F8000554B9B4500F0B8834046494614F026FC5B
:102F9000BAF1000F06D1002C59D04E4B27F0404219
:102FA0009A4254D0FF0F013F56EA070373D04B4BB0
:102FB0009D4240F39B8003F104739D4240F33E84A5
:102FC000474B9C4272DDBBF1000F72DD3EA3D3E99B
:102FD00000231046194616F081FCB1E728B141489C
:102FE00013B0BDE8F04F16F0CDB8A542F7DCAFE75F
:102FF00004F1404303F5801353EA0A039ED0384B93
:103000009C4240F38383BBF1000F52DBDDE90001FA
:1030100096E7BCF1000F9ED089E7334B9D4231DC2F
:10302000A3F154739D429CDD2B15A3F2FF33142BA7
:1030300040F3A583C3F134032CFA03F202FA03F33D
:1030400063458ED102F00102C2F102068AE7BBF1AC
:10305000000F05DA02460B4600201E4916F068FDF7
:10306000002FBFF66DAF04F1404404F5801454EA1C
:10307000060300F03F84012E7FF462AF01F10043AC
:1030800019465DE702266DE7BBF1000FC0F24883E9
:103090004046494654E742464B461046194616F00C
:1030A00065FA02460B4616F043FD49E7BBF1000FF7
:1030B0008CDB0020002143E742464B464046494610
:1030C00016F00CFC3CE700BF9C7500883CE4377EA2
:1030D0000000F07F0000F03F0000E03F0000E04112
:1030E000FFFFEF3F48B40100FFFF3F43B4F5801FEF
:1030F00080F261830022D24B16F0F0FB6FF0340CAB
:103100000C462315CF4DC4F31302A3F2FF3342F054
:103110007F546344AA420B9344F4401440F33F832A
:10312000C94B9A4240F304849FEDAF7B8DED087B41
:103130008DED107B9FEDAE7B0B9B8DED067B013300
:103140000B93A4F580140025DDE906232146824671
:1031500016F00CFAA346DDE9062380468946504660
:103160002146CDE90CAB16F003FA02460B460020CF
:10317000B64916F0DDFC0A460146CDE90E121346AB
:1031800049460246404616F0A9FB631043F000533F
:1031900082468B4603F500238C46CDE904AB5919D2
:1031A000D3460023CDE902BC0293DDE902AB002047
:1031B00004460D4602460B465046594616F08EFB15
:1031C00002460B464046494616F0D0F9DDE9062393
:1031D000804689462046294616F0C8F902460B4625
:1031E000DDE90C0116F0C2F952465B4616F076FB9B
:1031F00002460B464046494616F0B8F9DDE90E2373
:1032000016F06CFBDDE90445CDE9060122462B46AC
:103210002046294616F062FB77A3D3E90023044633
:103220000D4616F05BFB76A3D3E9002316F0A0F958
:1032300022462B4616F052FB73A3D3E9002316F067
:1032400097F922462B4616F049FB71A3D3E90023D8
:1032500016F08EF922462B4616F040FB6EA3D3E9FA
:10326000002316F085F922462B4616F037FB6CA397
:10327000D3E9002316F07CF92246804689462B4686
:103280002046294616F02AFB02460B464046494690
:1032900016F024FB524604460D465B46DDE9040168
:1032A00016F066F9DDE9062316F018FB22462B46D8
:1032B00016F05EF95246804689465B4650465946AE
:1032C00016F00CFB0022624BCDE90C0116F050F910
:1032D00042464B4616F04CF902980D4604462246EB
:1032E0002B465046594616F0F9FA002282468B4684
:1032F000574B2046294616F039F9DDE90C2316F024
:1033000035F902460B464046494616F02FF9DDE9ED
:10331000042316F0E3FA2246804689462B46DDE96F
:10332000060116F0DBFA02460B464046494616F007
:103330001FF98046894602460B465046594616F00C
:1033400017F9029838A3D3E9002304460D4616F076
:10335000C5FA5246CDE904015B462046294616F0DF
:1033600005F902460B464046494616F0FFF830A3E1
:10337000D3E9002316F0B2FA2FA3D3E90023804645
:1033800089462046294616F0A9FA02460B464046D1
:10339000494616F0EDF8DDE9102316F0E9F880460D
:1033A0000B98894616F030FA424682468B464B46C9
:1033B000DDE9040116F0DCF8DDE9082316F0D8F8A1
:1033C00052465B4616F0D4F8029852465B460446D5
:1033D0000D4616F0CBF8DDE9082316F0C7F8DDE955
:1033E000042337E0AFF3008000000000000000007D
:1033F000000000000000F03FEF4E454A287ECA3F23
:1034000065DBC9934A86CD3F01411DA96074D13F58
:103410004D268F515555D53FFFAB6FDBB66DDB3F6A
:10342000033333333333E33F000000E009C7EE3F9B
:10343000FD033ADC09C7EE3FF5015B14E02F3EBE09
:10344000000040438E98030079B60B000000F03F67
:103450000000084016F08AF80B46024649464046EE
:1034600016F084F8013E56EA070382468B4600F0C8
:103470005E819FEDD37B8DED047BDDE9001200239F
:103480000E461746CDE902670293DDE9026708465A
:103490003B461146324616F069F822462B4616F096
:1034A0001DFADDE90023804689465046594616F04C
:1034B00015FA02460B464046494616F059F8324680
:1034C000804689463B4620462946CDE9008916F0CC
:1034D00005FA0B46024606460F464046494616F098
:1034E00047F8D14B994204460D468A4640F3248161
:1034F00001F13F4303F5E003034340F0FF81B2A332
:10350000D3E90023DDE9000116F032F832468046A7
:1035100089463B462046294616F028F802460B46C7
:103520004046494616F06AFC002840F0E781A8466C
:103530004FEA2853A3F2FE324FF480131341534451
:10354000C3F30A52B94DA2F2FF321541C3F313047B
:1035500023EA05010020C2F1140B44F48014BAF1EF
:10356000000F02460B4644FA0BFB30463946B8BF03
:10357000CBF1000B15F0FAFF06460F463246DDE9A7
:1035800000013B4615F0F4FF4FEA0B5A0D460024AC
:103590008FA3D3E900232046294616F09FF932462F
:1035A000804689463B462046294615F0DFFF024605
:1035B0000B46DDE9000115F0D9FF87A3D3E900230D
:1035C00016F08CF986A3D3E9002306460F46204661
:1035D000294616F083F902460B463046394615F067
:1035E000C7FF06460F4602460B464046494615F0C1
:1035F000BFFF42464B4604460D4615F0B7FF024654
:103600000B463046394615F0B1FF224680468946C2
:103610002B462046294616F061F973A3D3E900230F
:1036200006460F4616F05AF971A3D3E9002315F0A8
:103630009DFF32463B4616F051F96FA3D3E90023B4
:1036400015F096FF32463B4616F048F96CA3D3E9D5
:10365000002315F08BFF32463B4616F03FF96AA374
:10366000D3E9002315F084FF32463B4616F036F9C5
:1036700002460B462046294615F078FF06460F46BF
:1036800002460B462046294616F028F90022CDE9CD
:1036900000014FF080433046394615F067FF02467F
:1036A0000B46DDE9000116F043FA424606460F4696
:1036B0004B462046294616F011F942464B4615F076
:1036C00057FF02460B463046394615F04FFF22465B
:1036D0002B4615F04BFF02460B460020544915F0CF
:1036E00045FF8A44BAF5801FC0F232815146DDE9B8
:1036F000042316F0F3F823E4002FFFF645AC404610
:10370000494613B0BDE8F04F14F004BFBBF1000F01
:10371000BFF6CFACDDE90034184604F100410FE4F8
:1037200042464B460020424916F002FA08E49FED5B
:10373000387B8DED047BA0E63E4B21F00048984598
:1037400040F3EA803C4B0B4403430AD132463B46EC
:1037500015F00CFFDDE9002316F046FB00283FF4CE
:10376000E7AEDDE904012CA3D3E9002316F0B6F897
:1037700029A3D3E9002316F0B1F8FFF7E1BBBCF1B0
:10378000000F40F0D280C3F1140345FA03F202FAAD
:1037900003F3AB4200F0E0806646FFF7E9BB9FED24
:1037A000207B8DED087B8DED107B9FED057B00254B
:1037B0008DED067BC8E44FF0000CA2E4AFF300806F
:1037C000000000000000F03FFE822B654715973C8B
:1037D00000000000432EE63FEF39FAFE422EE63F9E
:1037E000396CA80C615C20BED0A4BE726937663EFD
:1037F000F16BD2C541BDBB3E2CDE25AF6A56113FF1
:1038000093BDBE166CC1663F3E5555555555C53FD7
:10381000000000000000F0BF59F3F8C21F6EA501C0
:103820000000000000000000FFFF8F40FFFF0F00BE
:103830000000F03FFFCB904000346F3F5A4B9C425A
:103840007FF734AC594B9C423FF7BDAB0022574B3E
:1038500015F08CFE44A3D3E9002304460D4616F070
:103860003DF843A3D3E9002382468B4620462946F0
:1038700016F034F80022CDE902014D4B20462946CE
:1038800016F02CF802460B463BA1D1E9000115F0D9
:103890006DFE22462B4616F021F802460B4600200C
:1038A000444915F063FE2246804689462B46204651
:1038B000294616F013F802460B464046494616F0D4
:1038C0000DF82FA3D3E9002316F008F802460B46A3
:1038D000DDE9020115F04AFE02460B4680468946A4
:1038E0005046594615F044FE002004460D46524607
:1038F0005B46AFE502460B46FFF7CFBBDDE90401AF
:1039000021A3D3E9002315F0E9FF1FA3D3E9002386
:1039100015F0E4FFFFF714BB264B98453FF708AEC0
:10392000DDE902239246934631E60026FFF72CBBE1
:103930009FED177B8DED087B9FED177B8DED107B49
:103940009FED177B4FF480258DED067BFFF7FCBBC9
:103950005A4601F029FDCAE602F00102C2F1020650
:10396000FFF706BBAFF30080000000604715F73F8C
:1039700044DF5DF80BAE543E555555555555D53F72
:10398000FE822B654715F73F9C7500883CE4377E27
:103990000000004003B8E23F06D0CF43EBFD4C3EB1
:1039A000000000000000F83FFEFFEF3F0000F03F86
:1039B0000000D03F0000E03F2DE9F047CA4B21F066
:1039C00000479F4290B08046894640F38F80C74BA6
:1039D0009F420C46924626DC0029B9A3D3E9002376
:1039E00040F38F8015F0C2FDC14B9F4204460D4647
:1039F00000F04781B4A3D3E9002315F0B7FD0246D8
:103A00000B46CAE900232046294615F0AFFDAEA3B8
:103A1000D3E9002315F0AAFD0125CAE902012846D1
:103A200010B0BDE8F087B34B9F4240F38980B24BA2
:103A30009F4200F31C813D15A5F21645A7EB0553E7
:103A400019461F46064616F0F9F915F0DDFE8046C8
:103A5000894642464B4630463946CDE90A8915F03B
:103A600085FD0022A54B15F039FF8946804616F0EA
:103A7000E5F915F0C9FE06460F4632463B4640467C
:103A80004946CDE90C6715F071FD00229B4B15F0FE
:103A900025FF00220023CDE90E0116F087F900284A
:103AA00000F06081002330463946002216F07EF98E
:103AB000002814BF01230223914A019202212A46C1
:103AC00000910AA8514600F087FB002C054614DA45
:103AD000DAF80420DAF80C3002F1004203F1004376
:103AE0004542CAF80420CAF80C3006E00020002144
:103AF000C2E90089C2E902010025284610B0BDE8EC
:103B0000F08715F035FD7A4B9F4204460D4600F0D4
:103B10000B816DA3D3E9002315F02AFD02460B4665
:103B2000CAE900232946204615F020FD66A3D3E903
:103B3000002315F01DFD4FF0FF35CAE90201DCE757
:103B400013F04CFE62A3D3E900238046894615F0AA
:103B5000C5FE00226B4B15F00BFD16F06FF9054604
:103B600015F052FE56A3D3E90023CDE9060115F066
:103B7000B5FE02460B464046494615F0F7FC52A3F7
:103B8000D3E9002380468946DDE90601CDE90289B3
:103B900015F0A4FE1F2D02460B46CDE9042340F389
:103BA000B380DDE90423DDE9020115F0DFFC804686
:103BB00089463F15C9F30A53FB1A102B40F3B18015
:103BC00045A3D3E90023DDE9060115F087FE804611
:103BD000894602460B46DDE9020115F0C7FC0246A4
:103BE0000B46DDE90201CDE9082315F0BFFC424692
:103BF0004B4615F0BBFC3AA3D3E900238046894627
:103C0000DDE9060115F06AFE42464B4615F0AEFCB2
:103C10000B46CDE904010246DDE9080115F0A6FCDA
:103C2000C1F30A53FF1A312F8046894600F39C8066
:103C30009DED087BCAE900898DED027B42464B462B
:103C4000DDE9020115F092FCDDE9042315F08EFC9C
:103C5000002CCAE90201BFF650AF09F1004401F19E
:103C600000436D42CAE90084CAE9020345E70246FF
:103C70000B4615F07BFC0025CAE90201CAE90001E8
:103C80003BE715A3D3E9002315F070FC14A3D3E997
:103C900000230D46044615F069FC02460B46CAE9AE
:103CA00000232946204615F061FC0DA3D3E900232B
:103CB00015F05CFC0125CAE902011EE7AFF30080A4
:103CC00000004054FB21F93F3163621A61B4D03DDA
:103CD00083C8C96D305FE43F0000601A61B4D03D15
:103CE0007370032E8A19A33BFB21E93F7BD9024065
:103CF000FB21F93FFB213941FFFFEF7F00007041BD
:103D0000B0BF01000000E03F4046494615F02EFCE0
:103D1000394B6A1E804653F82230BB4289463FF435
:103D200048AFCAE9008989E72BA3D3E9002315F03E
:103D30001FFC2BA3D3E900230D46044615F018FC05
:103D400002460B46CAE900232946204615F00EFC20
:103D500023A3D3E9002315F00BFC4FF0FF35CAE98C
:103D60000201CAE60323A7E61FA3D3E90023DDE986
:103D7000060115F0B3FD06460F4602460B46DDE987
:103D8000080115F0F3FB8046894602460B46DDE943
:103D90000801CDE9028915F0E9FB32463B4615F0F2
:103DA000E5FB13A3D3E9002306460F46DDE9060130
:103DB00015F094FD32463B4615F0D8FB02460B4603
:103DC00040464946CDE9042315F0D0FB804689469C
:103DD000A7E700BFAFF300800000601A61B4D03DD8
:103DE0007370032E8A19A33B0000002E8A19A33B8F
:103DF000C14920259A837B3930BF010000000000B3
:103E0000574A2DE9F84F21F00048904506460F46E5
:103E10002CDC544B0029B4BF534D544D98454FF002
:103E2000000411DC524B984526DC4BA3D3E9002358
:103E300015F09EFB00224F4B15F0E0FF002840D00C
:103E400030463946BDE8F88F4B4B984530DD4B4B3B
:103E5000984568DD0133984562D0304639463EA327
:103E6000D3E9002315F03AFDBDE8F88F02460B4672
:103E700015F07EFBBDE8F88F13F0B0FC01F048F8B8
:103E80003F4B984506460F4623DD0022394B15F07F
:103E90006FFB02460B463046394615F049FE324666
:103EA0003B4615F065FB22462B4615F017FDE1E772
:103EB00013F094FCFEF75CFC22462B4615F00EFD39
:103EC000D8E73046394613F089FC01F021F8064660
:103ED0000F4632463B463046394615F049FB3246DE
:103EE00082468B463B463046394615F0F7FC0022A9
:103EF000804689461F4B3046394615F039FB02464D
:103F00000B464046494615F013FE02460B46504606
:103F1000594615F02BFB22462B4615F0DFFCA9E78E
:103F2000184B984299D83046394613F057FC002276
:103F30000E4B15F0D3FCFEF71BFC06460F4602465F
:103F40000B462046294615F0C9FC32463B4615F083
:103F5000C5FC8FE7AFF300803374AC3C1F7BAC7FB4
:103F6000FFFFEF7FFFFF35400000E0BF0000E03FB4
:103F7000FFFF2F3E0000F03F412E8640CD338640AC
:103F8000FFFFEF3F7DF8B98F2DE9F04F21F000489A
:103F9000B8F1795F85B006460F4692469B466BDACC
:103FA00015F04CFF002800F0E18032463B463046D9
:103FB000394615F093FC74A3D3E9002304460D465B
:103FC00015F08CFC72A3D3E9002315F0D1FA224638
:103FD0002B4615F083FC70A3D3E9002315F0C6FA35
:103FE00022462B4615F07AFC6DA3D3E9002315F089
:103FF000BFFA22462B4615F071FC6BA3D3E90023D0
:1040000015F0B4FA22462B4615F068FC68A3D3E9F4
:10401000002315F0ADFA22462B4615F05FFCCDE9E2
:1040200000010022664B2046294615F057FCDDE9C9
:104030000023804689462046294615F04FFC52460B
:1040400004460D465B463046394615F047FC0246AD
:104050000B462046294615F089FA02460B46404693
:10406000494615F083FA02460B460020554915F0E3
:104070007DFA05B0BDE8F08F02460B4615F02EFC28
:1040800041A3D3E9002304460D4615F027FC40A3C5
:10409000D3E9002315F06CFA22462B4615F01EFCDE
:1040A0003DA3D3E9002315F061FA22462B4615F013
:1040B00015FC3BA3D3E9002315F05AFA22462B4600
:1040C00015F00CFC38A3D3E9002315F04FFA224673
:1040D0002B4615F003FC36A3D3E9002315F048FA6C
:1040E0002B46224615F0FAFB374B9845CDE90001E7
:1040F00097DD364B98453EDCA8F5001300220020E2
:1041000030499046994615F031FACDE90201002276
:104110002B4B2046294615F0E1FB42464B4615F055
:1041200025FADDE90023804689462046294615F018
:10413000D5FB524604460D465B463046394615F0DF
:10414000CDFB02460B462046294615F00FFA0246E3
:104150000B464046494615F009FA02460B46DDE992
:10416000020115F003FA05B0BDE8F08F15490020F3
:1041700005B0BDE8F08F9FED107B4FF000088DED8E
:10418000027BDFF84C90C2E7D43888BEE9FAA8BDBC
:10419000C4B1B4BD9EEE213EAD529C804F7E923E96
:1041A0009015CB19A001FA3E7751C1166CC1563F4C
:1041B0004C5555555555A53F000000000000E73F00
:1041C0000000E03F0000F03F3233D33F0000E93F02
:1041D0000000D23F000000002DE9F04FADF5197D41
:1041E000BE4CA29EBE4D54F826600793D41E85FB9C
:1041F0000475E417C4EBA50424EAE4741D46631CAB
:10420000A3EB8303013D02EBC303059373190496EB
:104210000994019503900B91A4EB05071AD43B4434
:10422000002400255E1C0DF18008DDF88C9208E06A
:1042300059F8270015F0E8FA0137B742E8E802011B
:1042400008D0002FF4DA013720462946B742E8E8C3
:104250000201F6D1049B002B079B4FEAC303029394
:104260002ADB039A20A902EB030801EB0309049B54
:1042700072AA02EBC30B0DF5E07A019B002B4FF005
:1042800000064FF0000711DB039C4D4675E9022341
:10429000F4E8020115F022FB02460B46304639468F
:1042A00015F066F9444506460F46EFD1EAE8026785
:1042B000DA4509F10809E0D1DDE902040499204456
:1042C0008B0082460BA8A3F10802C31808930CAB1D
:1042D00013440A938B4698AB03EBCB03BBF1000F5F
:1042E00053E9284529DD70AB03EBCB080DF130090C
:1042F00000227C4B2046294615F0F0FA15F09EFD71
:1043000015F082FA0022784B06460F4615F0E6FAC1
:1043100002460B462046294615F028F915F08EFD79
:1043200078E9022349F8040B3946304615F020F9A4
:1043300070AB984504460D46DAD1DDF8149020465E
:1043400029464A4601F030F800224FF07F530446D8
:104350000D4615F0C3FAFCF7A7FD0022634B15F0DC
:10436000BDFA02460B462046294615F0FFF80D46D9
:10437000044615F063FD804615F046FA0B460246EA
:104380002946204615F0F2F84B46002B06460F460C
:1043900040F3E1800BF1FF320CA9C9F1180351F889
:1043A000225045FA03F101FA03F30CA8EB1A40F886
:1043B0002230C9F11705884443FA05F5002D2CDD9C
:1043C000BBF1000F08F1010840F381820C9C002C26
:1043D00040F0A780BBF1010F0AD00CA9012251F8CF
:1043E000044F531C002C40F09E809B451A46F6D18A
:1043F000059B002B0EDD012B00F0D980022B09D18B
:104400000BF1FF320CAB0CA953F82230C3F31503A8
:1044100041F82230022D00F0AF8000220023304608
:10442000394615F0C3FC002800F05382049B0BF1C1
:10443000FF394B4510DC0BF180430CAA013B089877
:1044400002EB8303002253F80419834242EA01027B
:10445000F9D1002A40F0B680049B0CAA013B52F827
:104460002330002B40F0A1800A9A012352F804194E
:1044700001330029FAD05B440BF1010999450693F9
:104480004CDC099A079909EB020801EB0B0508F1CE
:10449000804802EB030BA39B08F1FF3803EB88086D
:1044A00070AB03EBC909A39B20A903EB8B0301EBC2
:1044B000C505029358F8040F15F0A6F90B460199AB
:1044C0000246002905F1080BC5E900234FF000065C
:1044D0004FF000071CDB039C0CE000BF50C4010040
:1044E000ABAAAA2A0000703E0000704100002040E4
:1044F00075E90223F4E8020115F0F0F902460B46D3
:104500003046394615F034F8544506460F46EFD18B
:10451000029B9845E9E802675D46CBD1DDF818B00B
:10452000D9E6012300220CA9C4F180749B4541F80F
:1045300022400EDD51F8232001EB8B0001EB8303B9
:104540006FF07F4100E01A688A1A43F8042B834217
:10455000F9D101244CE706D10BF1FF330CAA52F834
:104560002350ED152AE700227B4B15F03DFC002877
:1045700040F0A381054650E732463B46002077498C
:1045800014F0F4FF06460F46002C3FF446AF059AA0
:104590007249002000F008FF02460B4630463946BB
:1045A00014F0E4FF06460F4637E7012363E70BF1FB
:1045B000FF320CAB0CA953F82230C3F3160341F8B9
:1045C000223027E70CAB059A53F82930183ACDE989
:1045D000068505926BB909F18043013B0CA901EBFB
:1045E000830353F8041909F1FF39183A0029F8D068
:1045F0000592059A5949002000F0D6FEB9F1000F46
:1046000004460D46C0F2C0814FEAC90370AA02EB0E
:10461000030808930CAB03EB8906DFF844B14FF0B5
:10462000000A08F10807043656F8040D15F0ECF8F6
:1046300022462B4615F052F95B4667E902015246C5
:104640002046294615F04AF90CAB9E4204460D4619
:10465000EAD148AB03930193CDF8149009F101031B
:10466000DDF810900293C3464FF0000AB9F1000F35
:10467000C0F22A81DFF8EC805D4635A3D3E9002340
:1046800000260027002403E0544510DCF8E802234C
:10469000F5E8020115F022F902460B46304639468C
:1046A00014F066FF0134A14506460F46ECDA019B83
:1046B000E3E802670193029B0AF1010A9A45ABF114
:1046C000080BD3D1A29BDDF81490032B39D8DFE877
:1046D00013F0D900060006004D0048AB0393B9F172
:1046E000000F4FF000004FF0000109DB039D05EBC8
:1046F000C904083474E9022314F03AFFA542F9D141
:10470000079B002B40F01E810B9BC3E900010B4669
:1047100003990246D1E9000114F028FFB9F1000F16
:104720000CDD4AAD01240134F5E8022314F020FF2A
:10473000A145F8DA079B002B40F014810B9BC3E9DD
:104740000201069B03F007000DF5197DBDE8F08F0F
:1047500000000040FB21F93F0000E03F0000F03F77
:104760000000703E68AC010048AB0393B9F1000F44
:1047700040F32781039ACDF810904FEAC9030193C3
:10478000D318D3E900AB09F10053013B02EBC90890
:104790000293914678E9026752465B4630463946B5
:1047A00014F0E6FE04460D4602460B4630463946F6
:1047B00014F0DCFE52465B4614F0DAFEC145A24618
:1047C000AB46C8E90201C8E90045E3D1DDF8109025
:1047D000B9F1010F40F3F580019B039A029913444C
:1047E000C900D3E9006701F1080A019192440DF56F
:1047F000947B7AE9028932463B464046494614F0AA
:10480000B7FE04460D4602460B464046494614F0A4
:10481000ADFE32463B4614F0ABFED34526462F464E
:10482000CAE90201CAE90045E3D1019C039B1034A7
:10483000002000211C4403F1100574E9022314F048
:1048400097FEA542F9D1039C079ED4E90023D4E941
:104850000245002E00F08A8003F1004701F1004379
:104860000B99C1E90403069B2646944605F10044D2
:1048700003F00700C1E900C7C1E902640DF5197D25
:10488000BDE8F08F089C039D0834002000212C44D3
:1048900074E9022314F06CFEA542F9D1079B13B111
:1048A00001F1004319460B9BC3E90001069B03F08D
:1048B00007000DF5197DBDE8F08FBBF1000F08F181
:1048C000010874DD022581E500260027EFE60024BB
:1048D0008EE5CDE90685059D304639466A4200F0F1
:1048E00063FD0022384B06460F4615F07DFA00B3F3
:1048F0000022364B3046394614F0F0FF15F09EFA90
:10490000044614F081FF00222F4B14F0E7FF0B4602
:1049100002463946304614F029FE15F08FFA0BF1A5
:1049200001090CAB183543F82B00059543F82940D5
:104930005FE63046394615F081FA0CABD94643F8AC
:104940002B0056E60B9C01F10043C4E900030B4623
:1049500003990246D1E9000114F008FEB9F1000FF5
:104960003FF7DFAE01F100431946E7E60B9EC6E9CB
:104970000023069BC6E9040103F00700C6E90245CF
:104980000DF5197DBDE8F08FA29B032B3FF6D9AE44
:1049900001A252F823F000BFA9490000DB46000045
:1049A000DB460000694700000020002176E7324620
:1049B0003B460020064914F0D9FD022506460F4665
:1049C0002BE5002000213EE7000070410000703E12
:1049D0000000F03F000000002DE9F04F21F00046FC
:1049E000B6F1795F85B004460D469046994604DAE3
:1049F00015F024FA002800F0858022462B46204638
:104A0000294614F06BFF06460F4602460B46204629
:104A1000294614F063FF41A3D3E9002382468B4665
:104A20003046394614F05AFF3EA3D3E9002314F070
:104A30009DFD32463B4614F051FF3CA3D3E90023D1
:104A400014F096FD32463B4614F048FF39A3D3E9F3
:104A5000002314F08BFD32463B4614F03FFF37A392
:104A6000D3E9002314F084FD0E9BCDE900019BB334
:104A70000022294B4046494614F030FFDDE900236F
:104A8000CDE902015046594614F028FF02460B4674
:104A9000DDE9020114F06AFD32463B4614F01EFFC8
:104AA00042464B4614F062FD19A3D3E900230646A3
:104AB0000F465046594614F011FF02460B46304649
:104AC000394614F055FD02460B462046294614F09F
:104AD0004DFD05B0BDE8F08F02460B463046394625
:104AE00014F0FCFE0AA3D3E9002314F03FFD524664
:104AF0005B4614F0F3FE22462B4614F039FD05B058
:104B0000BDE8F08F2046294605B0BDE8F08F00BF14
:104B1000495555555555C53F0000E03F7CD5CF5A06
:104B20003AD9E53DEB9C2B8AE6E55A3E7DFEB1572E
:104B3000E31DC73ED561C119A0012A3FA6F8101197
:104B40001111813F000000002DE9F04FC04C21F011
:104B5000004687B0A64282468B460F46CDE9002329
:104B60001ADC15F06BF900283FD1109B5246013337
:104B70001343334300F0B781109B012B00F0C08139
:104B80005B460020B34914F0D3FF04460D4620468F
:104B9000294607B0BDE8F08FAF4B9E4225DD0029C6
:104BA00009DADDE90045224605F10043CDE900239D
:104BB0000BF100418B4652465B4685A1D1E90001CD
:104BC00014F0D4FCDDE9002304460D4682A1D1E9AE
:104BD000000114F0CBFC9FED827B22462B468DED2D
:104BE000007B14F0C5FC82468B4652465B4650461D
:104BF000594614F073FE02460B468046894614F06F
:104C00006DFE424604460D464B465046594614F04A
:104C100065FE75A3D3E90023CDE9020120462946AC
:104C200014F05CFE72A3D3E9002314F0A1FC224629
:104C30002B4614F053FE70A3D3E9002314F098FC24
:104C400022462B4614F04AFE6DA3D3E9002314F04C
:104C50008FFC22462B4614F041FE6BA3D3E90023C0
:104C600014F086FC22462B4614F038FE68A3D3E9E4
:104C7000002314F07DFC42464B4614F02FFE66A341
:104C8000D3E90023CDE904012046294614F026FE8D
:104C900063A3D3E9002314F06BFC22462B4614F0E7
:104CA0001DFE61A3D3E9002314F062FC22462B46CB
:104CB00014F014FE5EA3D3E9002314F059FC22463D
:104CC0002B4614F00BFE5CA3D3E9002314F050FC38
:104CD00022462B4614F002FE59A3D3E9002314F018
:104CE00047FC02460B46DDE9040114F041FCDDE916
:104CF000022314F0F3FDDDE9004522462B4614F0B3
:104D000037FC42464B4614F0E9FD22462B4614F090
:104D10002FFC4DA3D3E9002304460D46DDE9020133
:104D200014F0DCFD22462B4614F022FC0B46024612
:104D3000804689465046594614F01AFC464B9E421E
:104D400004460D4600F38C80109B012B3BD002469D
:104D50000B4600203F4914F0EBFE002406460F46A8
:104D60002046294652465B46CDE90067CDE902015F
:104D7000009414F0FBFBDDE900AB02460B46404615
:104D8000494614F0F3FB52465B4614F0A7FD524629
:104D900004460D465B46DDE9020114F09FFD00224A
:104DA0002E4B14F0E5FB02460B462046294614F034
:104DB000DFFB32463B4614F091FD52465B4614F051
:104DC000D7FB04460D462046294607B0BDE8F08FC4
:104DD000182D4454FB21E93F075C143326A6813C7F
:104DE0000000000000000000D47ABF74702AFB3E6F
:104DF000E9A7F0320FB8123F68108D1AF726303F3E
:104E00001583E0FEC8DB573F93846EE9E326823FBB
:104E1000FE41B31BBAA1AB3F735360DBCB75F3BE4E
:104E2000A69237A0887E143F0165F2F2D844433F32
:104E3000280356C9226D6D3F37D60684F464963F29
:104E40007AFE10111111C13F635555555555D53F87
:104E5000FFFF2F3E0000F0BF2794E53F0000F03F2A
:104E6000109814F0D1FC2246CDE900012B462046D3
:104E7000294614F033FDDDE90023CDE90201204687
:104E8000294614F075FB02460B46DDE9020114F0D9
:104E90004FFE42464B4614F069FB02460B46504615
:104EA000594614F063FB02460B4614F061FB0246C0
:104EB0000B46DDE9000114F059FB0446B81700F079
:104EC0000200C0F101000D4614F09EFC02460B46A4
:104ED0002046294614F002FD04460D462046294688
:104EE00007B0BDE8F08F5046594612F077FC0246F5
:104EF0000B460020044914F01BFE04460D4662E7F1
:104F000054465D465FE700BF0000F03F0000000030
:104F10002DE9F04FCC4A21F00043934285B0824600
:104F20008B460C4620D9C94A934200F2D780002C08
:104F300080F2A481ACA3D3E900235046594614F073
:104F400017FB0022002314F03BFF002840F0D18023
:104F5000A7A3D3E900235046594614F0BFFC0246EC
:104F60000B460020BA4994E1BA4A934200F2E58028
:104F7000B94A934240F22E81002301930022B74B9D
:104F80005046594614F0AAFC06460F4602460B4608
:104F90005046594614F0A2FC97A3D3E900230446D7
:104FA0000D4614F09BFC96A3D3E9002314F0E0FA1D
:104FB00022462B4614F092FC93A3D3E9002314F06D
:104FC000D5FA22462B4614F089FC91A3D3E900239D
:104FD00014F0CEFA22462B4614F080FC8EA3D3E9BF
:104FE000002314F0C3FA22462B4614F077FC00226B
:104FF0009B4B14F0BDFA8046894602460B4630466C
:10500000394614F06BFC02460B460020954914F01B
:10501000ADFA064602460B460F464046494614F096
:10502000A5FA3246804689463B465046594614F01A
:1050300055FC02460B4600208B4914F097FA0246B5
:105040000B464046494614F073FD22462B4614F0A9
:1050500045FC019E02460B46002E4DD0DDE902675D
:1050600032463B4614F082FA52465B4614F036FC58
:1050700032463B4614F07AFA2B46224614F076FA72
:10508000019B013306460F4600F02381019B012B53
:105090007BD0019A531C392B4FEA025500F228812C
:1050A000019A132A40F35581019BC3F57F740334A1
:1050B0000022230514F05CFA02460B46504659467E
:1050C00014F054FA0022664B14F052FA824605EBB3
:1050D000010B5046594605B0BDE8F08F634A934234
:1050E0001BD9C1F313030343024640F01281002988
:1050F000EFDA00205E490DE05046594614F0EEFB11
:1051000022462B4614F032FA02460B4650465946C8
:1051100014F02CFA05B0BDE8F08F41A3D3E90023C9
:1051200014F06CFE00283FF402AF3FA3D3E9002344
:105130001046194614F0D2FBECE74E4A934200F2B7
:10514000EC8000293AA3D3E9002339DA14F010FAED
:1051500039A7D7E900674FF0FF33804689460193AE
:1051600032463B464046494614F000FA02460B469A
:1051700082468B464046494614F0F8F932463B4693
:1051800014F0F4F9CDE90201F8E600223A4B50465A
:10519000594614F015FE002800F0CC8050465946C0
:1051A00000222E4B14F0E4F902460B4630463946F5
:1051B00014F0DCF900224FF0404314F08FFBA9E714
:1051C00014F0D4F901238046894601931CA7D7E93E
:1051D0000067C5E714A3D3E9002314F0C9F9024618
:1051E0000B468FE7AFF3008059F3F8C21F6EA5019D
:1051F000FE822B654715F73F2DC3096EB7FD8ABEAA
:105200003952E686CACFD03EB7DBAA9E19CE143FEC
:105210008555FE19A0015A3FF41011111111A13F3B
:10522000EF39FAFE422E86409C7500883CE4377EBA
:105230000000E0FE422EE63F763C7935EF39EABDCC
:10524000763C7935EF39EA3D79684340412E864016
:105250000000E0BF422ED63FFFFF8F3C0000E03F42
:105260000000F03F0000084000001840FFFFEF7F03
:105270000000F0BFB1A2F03F0000D0BF44A3D3E9CB
:1052800000235046594614F029FB02460B460020E5
:10529000414914F06DF914F0D1FD019014F0B4FA05
:1052A00037A3D3E9002306460F4614F017FB024646
:1052B0000B465046594614F059F933A3D3E900235D
:1052C000804689463046394614F008FB06460F46AC
:1052D00046E702460B465046594614F047F900226D
:1052E0002D4B14F0FBFA00222B4B14F03FF911E781
:1052F00052465B4614F03AF902460B460020274915
:1053000014F034F96B1819460022244B14F02EF9CE
:1053100000E70B4614F02CF9FCE61DA3D3E90023AB
:1053200014F0DCFA002C02460B464FF00000AFDA16
:105330001B49AEE732463B465046594614F016F933
:1053400002460B4614F014F90022144B14F010F925
:10535000E0E64FF4001343FA02F452465B4614F0C1
:1053600005F9C4F17F57002607F5401702460B46A2
:105370003046394614F0FAF8A8E600BFAFF30080D3
:105380000000E0FE422EE63F763C7935EF39EA3DFB
:10539000FE822B654715F73F0000E03F0000F03F1D
:1053A0000000E0BF00000000F8B5C1F30A53044656
:1053B0000D460E4617460BBB21F00046034633430D
:1053C0001BD0354B002214F089FA344B9F4204461F
:1053D0000D4635DBC1F30A530E46363B3B4440F2E3
:1053E000FE72934232DC002B11DD26F0FF4626F4DC
:1053F000E00646EA035520462946F8BD40F2FF7212
:105400009342EBD102460B4614F0B2F8F8BD13F10B
:10541000350F28DA4CF250339F4222462B460ADDE4
:1054200019A1D1E9000114F013F817A3D3E900235F
:1054300014F054FAF8BD16A1D1E9000114F008F8EF
:1054400013A3D3E9002314F049FAF8BD22462B46F2
:105450000DA1D1E9000113F0FBFF0BA3D3E9002359
:1054600014F03CFAF8BD26F0FF4626F4E006363389
:1054700046EA0355204629460022094B14F02EFA2D
:10548000F8BD00BFAFF300809C7500883CE4377E18
:1054900059F3F8C21F6EA50100005043B03CFFFF56
:1054A0000000903C10B5054C237833B9044B13B180
:1054B0000448AFF300800123237010BD10050020C5
:1054C00000000000A8C5010008B5034B1BB103494B
:1054D0000348AFF3008008BD000000001405002061
:1054E000A8C50100154B002B08BF134B9D46A3F523
:1054F000803A00218B460F461348144A121A09F0CD
:10550000CDF80F4B002B00D098470E4B002B00D04E
:1055100098470020002104000D000D48002802D00B
:105520000C48AFF3008013F0C9FF2000290005F0FC
:10553000CDF813F0AFFF00BF00000800000002200C
:10554000000000000000000000040020A40C002067
:10555000000000000000000070B504460E4600F098
:1055600047FA88B103681B6B05469847082C0CD096
:10557000A4F10903012B14D93246214610230D2032
:10558000BDE8704004F07AB870BD2B6828469B6A6D
:1055900098470228F0DC2B6828465B6A042198476C
:1055A000EAE72B6828469B6A98470528E4DC2B68C5
:1055B00028465B6A08219847DEE700BF38B52DED25
:1055C000028B054600F014FA044640B103681B6BD9
:1055D0009847032D03D8DFE805F02F363D06BDECD4
:1055E000028B002038BD20460CF036FC07EE900AF6
:1055F0002046F8EEE78A0CF037FC07EE900A2046CA
:10560000B8EEE78A0CF038FC68EE087A07EE100A6C
:10561000E8EEA87AB8EEC77AE7EE077AF5EE407AB8
:10562000F1EE10FAB1EEE78A1BD4FDEEC87ABDECBC
:10563000028B17EE900A38BDBDEC028B2046BDE808
:1056400038400CF009BCBDEC028B2046BDE8384068
:105650000CF00ABCBDEC028B2046BDE838400CF0D3
:105660000BBC17EE900A12F0EFFDDEE738B50446EA
:1056700000F0BEF958B103681B6B0546984744B16A
:10568000012C04D12846BDE838400CF02FBC002086
:1056900038BD2846BDE838400CF004BC10B50446BF
:1056A00000F0A6F928B1036821465B6ABDE8104006
:1056B000184710BD0048704716FCFFFF704700BF39
:1056C00010B5034B036004460CF026FC204610BDC9
:1056D0002CBA010010B5054B036004460CF01CFC0D
:1056E000204614F083FE204610BD00BF2CBA0100F6
:1056F0002DE9F041032184B00546512001F0DAFC88
:10570000DFF8E8C2AE4B044604F00F06C4F30317FB
:1057100014F4807408BF6346AA4831463A460BF039
:1057200057FB221C18BF012231463B4628460EF08B
:1057300069FA0023AB60A4480BF04AFB4FF0FF313D
:10574000032001F0B7FCC0B204F052FA4FF0FF3171
:105750000446022001F0AEFCC0B204F049FA002C6D
:105760003BD0002839D00146204604F063F80646B5
:1057700000284DD04FF0FF31462001F09BFC32282D
:1057800004464ED04BDD382800F0B18068285FD148
:105790004FF0FF31012001F08DFCC0B204F028FA77
:1057A00080465C2014F02BFE0523019342460094B2
:1057B00031462B4607460DF0DFFAAF603B683846AE
:1057C000DB6A9847A86803681B6B98477F480BF013
:1057D000FFFA284604B0BDE8F0817D480BF0F8FAE6
:1057E0004FF0FF31192001F065FCC0B204F000FA5F
:1057F0004FF0FF310446182001F05CFCC0B204F009
:10580000F7F90146204604F015F806460028B1D104
:1058100070480BF0DDFA284604B0BDE8F08130286E
:1058200016D14FF0FF31012001F044FCC0B204F06A
:10583000DFF98046502014F0E2FDA4B207460523AC
:1058400001934246009431462B460DF03FF8B4E7F1
:1058500001243268CDE900440023D76AAB600F22EF
:105860000DF10F0332213046B847002800F0858043
:105870003368CDE900440F22DF6A30210DF10F03B8
:105880003046B84700284AD03368CDE900440D229D
:10589000DF6A38210DF10F033046B847002872D077
:1058A0003268CDE900440DF10F03D76A68217522F3
:1058B0003046B847002845D1682147480BF088FAA0
:1058C0004FF0FF31204601F0F5FBC0B204F090F933
:1058D00080465C2014F093FD05246823CDE9003454
:1058E000424631462B4607460DF046FA65E74FF033
:1058F000FF31012001F0DEFBC0B204F079F98046EF
:10590000502014F07CFD05230746019342462B46A8
:10591000009431460DF010F9304B3B604DE73021DB
:105920002D480BF055FA30244FF0FF31012001F0E3
:10593000C1FBC0B204F05CF98046502014F05FFD5A
:1059400007467CE726480BF043FAAF68002F7FF448
:1059500035AF4FF0FF31032001F0ACFBC0B204F0D3
:1059600047F930B11F480BF033FA284604B0BDE8C0
:10597000F0811D480BF02CFA4DE7322116480BF050
:1059800027FA3224D0E7382113480BF021FA4FF0E0
:10599000FF31204601F08EFBC0B204F029F98046A9
:1059A000502014F02CFD052438230746CDE900349F
:1059B00042462B4631460DF0BFF8084B3B60FCE6F3
:1059C000F0AC010000AD010020AD0100E0AD010030
:1059D00030AD010044AD010070AD0100B8AC010074
:1059E0005CAD010084AD0100C0AD0100F8AC010068
:1059F00038B5114C23680BB1986838BD4FF0FF31B2
:105A0000012001F057FBC0B204F0F2F840B10C20C5
:105A100014F0F5FC0546FFF76BFE2560A86838BD5D
:105A20004FF0FF31032001F045FBC0B204F0E0F875
:105A30000028ECD138BD00BF2C05002008B501F0CE
:105A40006BFCFBF7D5FCBDE8084001F0C5B900BF11
:105A500008B501F061FCFBF73BFDBDE8084001F033
:105A6000BBB900BF08B501F057FC11F02DFFBDE830
:105A7000084001F0B1B900BF08B501F04DFC12F0CB
:105A80001FFBBDE8084001F0A7B900BF08B501F051
:105A900043FCFBF7BDFCBDE8084001F09DB900BF29
:105AA00008B501F039FC12F041F9BDE8084001F0F9
:105AB00093B900BF08B501F02FFCFAF745FFBDE828
:105AC000084001F089B900BF08B501F025FC12F0CB
:105AD00083F8BDE8084001F07FB900BF70B5049EAF
